:100000000C942E020C944B020C944B020C944B0259
:100010000C944B020C944B020C944B020C944B022C
:100020000C944B020C944B020C946F260C942B26D0
:100030000C946C270C944B020C944B020C944B02C6
:100040000C944B020C944B020C944B020C944B02FC
:100050000C944B020C9448270C944B020C944B02CA
:100060000C944B020C944B020C944B020C944B02DC
:100070000C944B020C944B020C944B020C944B02CC
:100080000C944B020C944B020C944B020C944B02BC
:100090000C944B020C944B020C944B020C944B02AC
:1000A0000C944B020C944B020C944B0229003A0026
:1000B0003B003C003D003E003F004000410042004C
:1000C000430044004500625D4C00490035001E00BD
:1000D0001F0020002100220023002400250026000C
:1000E00027002D002E0000002A004A002B000000EF
:1000F00014001A000800150017001C0018000C005E
:10010000120013002F00300031004B0039000000B6
:1001100004001600070009000A000B000D000E0085
:100120000F0033003400280000004E000000E10002
:100130001D001B000600190005001100100036000C
:10014000370038000000E50052004D00E000E200FA
:10015000E300E0000000000000002C0000000000B0
:100160000000E4000151500051004F00005CDF5CD2
:10017000000000000000000000000000000000007F
:1001800000000000000000000000AE00A50000001C
:10019000000000000000000000000000000000005F
:1001A00000000000000000000000A80000000000A7
:1001B000000000000000000000000000000000003F
:1001C000C35CCB5CCA5CC45C00004600000000005D
:1001D000000000000000000000000000000000001F
:1001E0000000BD00A90000000000000000000000A9
:1001F00000000000000000000000000000000000FF
:10020000BE00AA0000000000000000000000000086
:1002100000000000000000000000A7000000000037
:100220000000A600015100000000000000010101D3
:1002300001010101010102020202020202020203A3
:100240000303030303030304040404040404050573
:100250000505050606060606070707070708080836
:1002600008090909090A0A0A0B0B0B0C0C0C0D0DE5
:100270000D0E0E0E0F0F0F1010111111121213137D
:100280001414151516161717181819191A1A1B1BF6
:100290001C1D1D1E1E1F2020212222232424252652
:1002A00026272829292A2B2C2D2D2E2F303132328A
:1002B000333435363738393A3B3C3D3E3F40414296
:1002C000434445464748494A4C4D4E4F505153547C
:1002D000555658595A5B5D5E5F6162646566686930
:1002E0006B6C6D6F7072737577787A7B7D7E8082B0
:1002F000838587888A8C8E8F91939596989A9C9EF9
:10030000A0A2A3A5A7A9ABADAFB1B3B5B7BABCBE08
:10031000C0C2C4C6C9CBCDCFD1D4D6D8DBDDDFE2D5
:10032000E4E7E9EBEEF0F3F5F8FAFDFF05010980EB
:10033000A101850319012AB700150126B70095010F
:1003400075108100C0050C0901A101850419012A5D
:10035000A002150126A002950175108100C00501BB
:100360000906A1018506050719E029E71500250101
:100370009508750181020507190029EF150025016F
:1003800095F075018102050819012905950575018A
:100390009102950175039101C005010906A10105AE
:1003A0000719E029E71500250195087501810295D7
:1003B00001750881010507190029FF150026FF00B6
:1003C000950675088100050819012905950575012F
:1003D0009102950175039101C009023B00020100E1
:1003E000A0FA090400000103010100092111010024
:1003F00001224000070581030800010904010001F2
:1004000003000000092111010001226D000705828F
:1004100003200001120100020000000884330100E3
:1004200001000102000124034C00690070006B0010
:1004300020007300680069006700750061006E00AD
:100440006700200031002E00300000000A034C003D
:10045000690070006B0000000403090411241FBE32
:10046000CFEFDAE0DEBFCDBF27E0A8ECB2E001C0FD
:100470001D92A132B207E1F712E0A0E0B1E0E4E0A2
:10048000F9E502C005900D92A83CB107D9F70E948A
:1004900093270C943D2C0C94000090911B079370B3
:1004A00061F081110BC0946090931B0710921801AA
:1004B00080911A07816080931A0708958D3210F099
:1004C000906BF2CF880F880F982BEECF90911B077F
:1004D000937071F080931C0760931D07453B08F0F3
:1004E00044EB40931E0780911A07816080931A079E
:1004F0000895E8EDF0E080818E7F80831092E20025
:100500001092DA001092E100A0EEB0E08C918160D0
:100510008C9380818F77808319BCA7EDB0E08C919C
:100520008E7F8C9380818F7E80831092BB0608958E
:100530002091E4003091E50095E6A9012091EC00BE
:10054000822F817020FF06C08091E80080FF06C0E6
:1005500080E008952091E80022FD1AC08091E00615
:10056000882389F0853089F08091EB0085FD0FC0EC
:100570002091E4003091E50042175307F9F29150C1
:10058000E1F684E0089582E0089583E0089581E033
:100590000895EF92FF920F931F93CF937C018B01ED
:1005A0000E949802C82F811117C08091E80085FD34
:1005B0000BC08091E8008E778093E8000E9498023B
:1005C000882399F3C82F08C0F70181917F01809398
:1005D000F1000150110949F78C2FCF911F910F9114
:1005E000FF90EF9008958091E20687FF13C08091FD
:1005F000E80082FF06C08091E8008B778093E800D6
:1006000004C08091E0068111F2CF08958091E00648
:100610008823D9F38091E80080FFF8CF8091E8002B
:100620008E77ECCF982F9093E900242F762F50E00F
:10063000891731F07091EC002091ED005091F0009D
:1006400021FD07C09F5F973071F78093E90081E03B
:1006500008953091EB003E7F3093EB003091ED0038
:100660003D7F3093ED003091EB0031603093EB0033
:100670007093EC002093ED005093F0002091EE0079
:1006800027FDE0CF80E00895B0E0A0E0EAE4F3E0E9
:100690000C94E92AC8EDD0E088818F7E8883E7ED4D
:1006A000F0E080818160808384E082BF81E080937C
:1006B000BB0688818E7F888302EE10E0F8011082ED
:1006C0001092DA0081EEC82ED12CF60110828881BA
:1006D0008F77888388818068888388818F7D8883ED
:1006E00019BC1092E0061092E1061092DF061092FB
:1006F000DE0690EEE92EF12CF70180818B7F80835E
:1007000088818160888342E060E080E00E9412037B
:10071000F60180818E7F8083F801808181608083F3
:10072000808188608083F70180818E7F80838881CB
:1007300080618883CDB7DEB7E8E00C94052BFC011F
:100740008091E8069091E90686179707A0F0611559
:10075000710529F49091E8009E779093E80090E06D
:100760006115710551F4911108C08091E80082FF74
:1007700034C080E00895BC01F2CF8091E006882368
:10078000C1F18530C1F18091E80083FD30C08091D6
:10079000E80082FDEACF8091E80080FFE1CF809100
:1007A000F3002091F200382F6115710519F02830FF
:1007B000310558F091E02830310509F090E02091A2
:1007C000E8002E772093E800CBCF81918093F10051
:1007D000615071092F5F3F4FE7CF8091E00688237A
:1007E00041F0853041F08091E80083FFBECF81E089
:1007F000089582E0089583E0089508950895809112
:10080000BD06089587E797E7909301088093000855
:1008100088E19AE00FB6F894A895809360000FBE27
:1008200090936000FFCF9C014FB7F8948091B2067F
:100830009091B306A091B406B091B5064FBF821B4C
:10084000930B08952FB7F8948091B2069091B30658
:10085000A091B406B091B5062FBF08952091140160
:100860002223C9F02091B60627FF15C0E62FE69592
:10087000E695E695EE31D8F4E80FF92FF11D677093
:1008800021E030E001C0220F6A95EAF720958281CD
:10089000282322830895FC01329608962191621341
:1008A00003C0DF0111971C92E817F907B9F7089503
:1008B000209114012223C1F02091B60627FF14C015
:1008C000E62FE695E695E695EE31F8F4E80FF92F78
:1008D000F11D677021E030E001C0220F6A95EAF750
:1008E0008281822B82830895FC0132962FEF30E0C3
:1008F0004191641751F02F3F19F4411101C0232F8A
:100900003F5F3630A9F72F3F09F40895820F911DFC
:1009100027FD9A95FC01628308952091AF063091DE
:10092000B0062817390771F09093B0068093AF0690
:10093000E091AD06F091AE06309721F00084F1858C
:10094000E02D099508952091AB063091AC0628174B
:10095000390771F09093AC068093AB06E091AD0639
:10096000F091AE06309721F00680F781E02D0995D1
:100970000895E091AD06F091AE06309729F0019010
:10098000F081E02D0995089580E00895FA01811124
:1009900001C0FB0109950895EFEAF5E081836083CA
:1009A0004283339696E0EB3AF907C1F70895FC01CC
:1009B000EE0FFF1FE80FF91FE155FA4F61834083E7
:1009C00022830895EBE1F7E0248130E1231B08F452
:1009D00020E0248380911A07816080931A0708958C
:1009E000EBE1F7E0248130E1230F08F42FEF2483BB
:1009F00080911A07816080931A070895EBE1F7E070
:100A0000438120E1421B08F440E08181628190E053
:100A10000E9466020895EBE1F7E0438120E1420F76
:100A200008F44FEF8181628190E00E946602089590
:100A3000EBE1F7E0628120E1621B08F460E0818174
:100A4000438190E00E9466020895EBE1F7E0628145
:100A500020E1620F08F46FEF8181438190E00E94F2
:100A600066020895EBE1F7E081814381628188505D
:100A7000990B0E9466020895EBE1F7E0818190E016
:100A80004381628108960E946602089580911B0747
:100A900086958695815009F48CE20E944D02089556
:100AA00080911B07869586958F5F8D3208F081E0D7
:100AB0000E944D020895EF92FF920F939701201B21
:100AC00031092F3F310519F010F02FEF30E020955C
:100AD000382F320F08F43FEF832F0F91FF90EF90E4
:100AE0000895EF92FF920F939701201B31092F3F3A
:100AF000310519F010F02FEF30E0322F3095482FEC
:100B0000430F08F44FEF842F620F0F91FF90EF9087
:100B10000895EF92FF920F93972F093438F4B7019D
:100B2000601B71096F3F710519F010F06FEF70E0F5
:100B3000485F5F4F4131510540F0A901485F5F4F69
:100B40004131510510F06FEF70E06095482F460F6E
:100B500008F44FEF842F37FF02C02D5F3F4F3595CC
:100B600027953595279560911C07620F792F0F9176
:100B7000FF90EF900895EF92FF920F931F930E0D49
:100B80001F2D111DF90137FF03C0F195E195F10902
:100B900024E0EE0FFF1F2A95E1F7EF3FF10519F072
:100BA00014F0EFEFF0E09A0157FF03C03195219563
:100BB000310994E0220F331F9A95E1F72E173F0772
:100BC0000CF4F901E00FF11FEF3FF10519F010F0FF
:100BD000EFEFF0E0E095282F3E2F230F08F42FEFE2
:100BE000822F1F910F91FF90EF900895EF92FF9247
:100BF0000F93970195E0099F200D311D11242F3F80
:100C0000310519F010F02FEF30E02095382F320F1A
:100C100008F43FEF832F0F91FF90EF90089522E8A3
:100C2000241B08F420E0620F08954095282F429F6E
:100C3000412D1124842F0895E42FF0E0EE0FFF1FC3
:100C4000E553FE4F9081921B97FD9195292F38E136
:100C5000239F212D1124620F08950F931F9310E0FD
:100C6000F801EE0FFF1FE553FE4F9081975797FD58
:100C70009195000F111FF801E453FE4F00810A51B6
:100C8000110B2003F001219FF00D112408E310E067
:100C9000091B110997FD139540039001419F300DE9
:100CA0001124E20FF31F9F01220F331F2E0F3F1F4E
:100CB00037FF02C021583F4F220F232F221F330B33
:100CC000620F1F910F9108950F931F93522F10E001
:100CD000F801EE0FFF1FE453FE4FA081AA51BB0B9A
:100CE0009D015203F001539FF00D1124000F111FBD
:100CF000D801A553BE4F0C910757110B400390012B
:100D0000419F300D11242E0F3F1F37FF02C0215C81
:100D10003F4F96E0359527959A95E1F7620F1F9121
:100D20000F9108950F931F93522F10E0F801EE0FCB
:100D3000FF1FE453FE4FA081AA51BB0B9D0152033C
:100D4000F001539FF00D1124000F111FD801A5537E
:100D5000BE4F0C910757110B40039001419F300D7E
:100D600011242E0F3F1F37FF02C021583F4F220F83
:100D7000232F221F330B620F1F910F910895EF92C3
:100D80000F93972F23E0029FB0011124759567956B
:100D90006E0D792F0F91EF900895322F50E0FA01E8
:100DA000EE0FFF1FE453FE4F90819A5197FD9195EE
:100DB000440F551FFA01E553FE4F2081231B330BCF
:100DC000290F311D97FD3A95620F0895E42FF0E049
:100DD000EE0FFF1FE453FE4F6081621B0895E42F66
:100DE000F0E0EE0FFF1FE553FE4F6081621B089598
:100DF000622F0895E42FF0E0EE0FFF1FE553FE4F42
:100E0000408134EE439F412D1124E82FF0E050E063
:100E1000445E5F4FDA01A21BB1099D01B7FF03C019
:100E200031952195310993E0220F331F9A95E1F70F
:100E3000AF01421B530B9A0157FD20E0582F259F0D
:100E4000212D1124822F0895E42FF0E0EE0FFF1FD3
:100E5000E553FE4F408134EE439F412D1124E72F8F
:100E6000F0E050E0445E5F4FDA01A21BB1099D0142
:100E7000B7FF03C031952195310993E0220F331F4D
:100E80009A95E1F7AF01421B530B9A0157FD20E001
:100E9000279F212D1124722F08950E94CC040895BC
:100EA0000E94D7040895FC019B01009729F480E07B
:100EB00077FF2BC080E80895AC0197FF04C044275A
:100EC0005527481B590BB901640F751F37FD10C01A
:100ED000241B350BC901A5E0880F991FAA95E1F7DE
:100EE0000E94C52A80E2861BF7FF0FC081950895F6
:100EF000CB0165E0880F991F6A95E1F7BA01621B83
:100F0000730B0E94C52A80E6EECF0895EF920F93EF
:100F1000CF93DF93D72FC82FC9010E19BA010E94B2
:100F20005307602F681B7D2F8C2FDF91CF910F917E
:100F3000EF9008950F93CF93DF93D72FC82FC90158
:100F4000BA010E945307682F600F7D2F8C2FDF910D
:100F5000CF910F910895EF920F931F93CF93DF934B
:100F6000D62FC72F182FC9010E19010FBA010E94E1
:100F70005307081B202F219F212D1124822F6D2F15
:100F80007C2FDF91CF911F910F91EF900895EF92F9
:100F90000F931F93CF93DF93D62F172FC82FC9011D
:100FA0000E19070FBA010E945307702F781B719F0B
:100FB000712D11246D2F8C2FDF91CF911F910F91E7
:100FC000EF9008950F931F93CF93DF93D62FC72FE2
:100FD000182FC901212F201B022FBA010E9453078D
:100FE000982F990F990F891B800F282F219F212D52
:100FF0001124822F6D2F7C2FDF91CF911F910F91A4
:1010000008950F931F93CF93DF93D62F172FC82FD9
:10101000C901272F201B022FBA010E945307982FC6
:10102000990F990F782F791B700F719F712D1124D3
:101030006D2F8C2FDF91CF911F910F910895E82F85
:1010400086FDE0952E2F2F7086FD2F5FE695E695A5
:10105000E695E670F0E0ED59FE4F9181929F902D5C
:10106000212D112492959F702295207F922B208113
:10107000920F87FD919580E8890F08950F931F9334
:10108000CF93DF938B01D82FC42F822F0E941F088C
:10109000EC2FF0E0EE0FFF1FE553FE4F90819058CC
:1010A000890F87FD8195880F682F2CE0629F612D45
:1010B0001124600F712F8D2FDF91CF911F910F9110
:1010C0000895409110015091110125E038E0429FB0
:1010D000C001439F900D529F900D1124875E994C43
:1010E0009093110180931001890F0895AC01823013
:1010F000910508F408959FEF413E8EE1580740F4B2
:101100009A0195E0369527959A95E1F798E0920F28
:1011100061E0E62FE90FFF27FF1F9F013595279517
:10112000822F229FF001239FF00DF00D11244E1706
:101130005F0738F49FEF920F961758F78FEF860FDF
:1011400008952F3FE9F361E0620FF6CF0F93CF933D
:10115000DF93D72FC82F47FD41958BE390E0841B89
:10116000910947FD9395889FB001899F700D700D7F
:101170001124229FC001239F900D900D1124860FF2
:10118000971F0E947608982F990F890F682F600F7C
:101190007D2F8C2FDF91CF910F91089530E020E0CB
:1011A000869F212D969F200D311D1124C901089580
:1011B00020911F0730E1230F08F42FEF60E1822F09
:1011C00090E00E94CE08BC0188EB9BE00E94B12A0F
:1011D00090E080E00895AF92BF92CF92DF92FF92AD
:1011E0000F931F93CF93DF93362F472FE82FF0E015
:1011F000E45DFD4F71110FC0E4918E2F2E2F6E2FE5
:10120000722FDF91CF911F910F91FF90DF90CF90C0
:10121000BF90AF900895C72FD0E02491F22E022FF7
:1012200010E056E0659FC0011124EFEFF0E0BF0130
:101230000E94B12A832F90E0880F991F35E5369FD1
:10124000D001379FB00D11248A1B9B0B982F990F4B
:10125000980F6F01CC1ADD0AC09ED001C19EB00D5F
:10126000D09EB00D11248B2F499FA0011124452F32
:1012700055276F01C41AD50AC09EA001C19E500D0A
:10128000D09E500D11245F01A91AB108AC9E6001D7
:10129000AD9ED00CBC9ED00C1124CD2CDD24EC19BD
:1012A000FD09E09FE001E19FD00DF09FD00D1124DA
:1012B000ED2F62307105A1F050F46115710509F44C
:1012C0009ECF6130710581F0EB2F852F98CF643070
:1012D000710569F080F06630710509F490CFF4CFA4
:1012E000E22F2B2F8D2F8BCFE22F252F88CFEB2FA7
:1012F000822F2D2F84CF2B2F8F2DE52F80CF2F9254
:101300003F925F926F927F928F929F92AF92BF9225
:10131000CF92DF92EF92FF920F931F93CF93DF93C1
:10132000CDB7DEB72A970FB6F894DEBF0FBECDBF9C
:101330008B837E836D832091150181E1289F802D11
:1013400011248F838F5E89838A83853510F034E57D
:101350003A838091EE068C83FF81EF2FF0E0FA87CD
:10136000E987CF01880F991F9C0125533E4F6901E2
:101370003B81832F90E0FC013196F887EF838A81CF
:1013800099859817E8F081E0E981E43508F080E07C
:101390002A960FB6F894DEBF0FBECDBFDF91CF9176
:1013A0001F910F91FF90EF90DF90CF90BF90AF9083
:1013B0009F908F907F906F905F903F902F900895B7
:1013C000E985FA85ED58FD4F8081909116018923BA
:1013D000F1F020901C0730901D072F813885225195
:1013E000394F39015B8010E0FC815F16D0F020910D
:1013F0001E07129F112D1124B101812F0E94EB08AD
:10140000462F282F672F89859A850E9450072985A6
:101410003A852F5F3F4F3A87298732E0C30ED11CB0
:10142000AECFF30181913F01F601A080A81ABB085D
:101430008180F3018781881A9908AA9C9001AB9C4E
:10144000300D300D1124889CC001899C900D900DA9
:101450001124820F931F0E947608082F60911F07A6
:1014600021E0620F08F46FEFF301EE0FFF1FEE5E55
:10147000F640858996890E94CE087C019401A501D9
:10148000B101812FED81FE8109951B015394182F25
:10149000ABCFB0E0A0E0EFE4FAE00C94E92A8C01D5
:1014A000C091150181E1C89FC02D112421E1D22EE8
:1014B000DC0ECD2C24E52D1510F494E5C92E2091D9
:1014C0001F0731E0230F08F42FEF30E050E040E039
:1014D0006FEF7FEF80E090E00E94DA2B7901D0E09F
:1014E0002C2FCC1550F081E0F3E5FD1508F480E0D9
:1014F000CDB7DEB7E8E00C94052BFE01ED58FD4FAB
:10150000808190911601892311F14091EE0641509E
:10151000042E000C550B47FF1CC0C70160911F072C
:1015200021E0620F08F46FEF0E94CE08AC016091D9
:101530001C0770911D0780911E07F80109950E94F4
:10154000EB08462F282F672FCE010E9450072196C7
:10155000C7CFFA01E251F94F818982130AC0FA011B
:10156000EE0FFF1FE251F94F818D928D8E159F0571
:10157000A8F241505109CFCFB0E0A0E0E2ECFAE090
:101580000C94EA2A7C01C091150181E1C89FC02D0D
:10159000112411E11C0F012F153508F004E56091AD
:1015A0001F076695669521E0620F08F46FEF809142
:1015B000EA069091EB060E94CE08D82ED0E0C01724
:1015C00048F081E0143508F080E0CDB7DEB7E7E001
:1015D0000C94062BFE01ED58FD4F80819091160171
:1015E000892391F060911C0770911D0780911E075F
:1015F0002D2D4C2FF70109950E94EB08462F282F1F
:10160000672FCE010E9450072196D9CFB0E0A0E00D
:10161000ECE0FBE00C94E62A6C01C091150181E13D
:10162000C89FC02D112411E11C0FB12E153510F0EB
:1016300034E5B32E60911F07669566958091EA06A2
:101640009091EB060E94CE08F82E80E48F0D0E9448
:101650001F0890E8A92EA80E8F2D0E941F0820E8D1
:10166000922E980ED0E0CB1548F081E0143508F0AA
:1016700080E0CDB7DEB7EBE00C94022BFE01ED5815
:10168000FD4F8081909116018923A1F060911C0784
:1016900070911D0780911E07EF2C0C2F292D4A2DCC
:1016A000F60109950E94EB08462F282F672FCE01DF
:1016B0000E9450072196D7CFB0E0A0E0E2E6FBE021
:1016C0000C94E42A5C01C091150181E1C89FC02DF2
:1016D000112411E11C0FF12E153510F034E5F32E15
:1016E00060911F0766958091EA069091EB060E9433
:1016F000CE08782ED0E0CF1548F081E0143508F000
:1017000080E0CDB7DEB7EDE00C94002BFE01ED5884
:10171000FD4F8081909116018923C9F1CE01880F78
:10172000991F85599E4FFC01E05AFF4F2081422F9F
:101730004757550B6A018F599F4FFC018081282F15
:101740002A51330B4901449F9001459F300D300DC4
:101750001124889CC001899C900D900D1124820F4A
:10176000931F0E947608082F60911C0770911D0737
:1017700080911E07E72C9401A601F50109950E94AE
:10178000EB08462F282F672FCE010E945007219685
:10179000B2CFB0E0A0E0EFECFBE00C94E92A7C01D2
:1017A000C091150181E1C89FC02D112411E11C0FCA
:1017B000D12E153510F034E5D32E60911F076695B4
:1017C0008091EA069091EB060E94CE08C82ED0E0E8
:1017D000CD1548F081E0143508F080E0CDB7DEB7D4
:1017E000E8E00C94052BFE01ED58FD4F80819091AF
:1017F0001601892311F1CE01880F991F85599E4F3B
:10180000FC01EF59FF4F20812A51330B805A9F4F23
:10181000FC0140814757550B60911C0770911D07D3
:1018200080911E070C2DF70109950E94EB08462FA9
:10183000282F672FCE010E9450072196C9CF80E044
:101840000895F894E82FE295EF70F0E031A1282F89
:101850002F7081E090E001C0880F2A95EAF7982F59
:101860009095932391A392A1892B82A378940895B4
:101870009091B60692FF06C0282F28712830F9F4FF
:10188000877F846093FF06C0282F28712831F1F4E8
:10189000877E84612091B70620FF06C0382F3871FB
:1018A0003830D9F4877F816021FF06C0282F287146
:1018B0002831D1F4877E816194FD877E0895282F99
:1018C00024712430F9F68B7F8860DCCF282F2471B7
:1018D000243101F78B7E8861DDCF382F31713130B3
:1018E00019F78E7F8860E0CF282F2171213121F7F1
:1018F0008E7E8861E1CF7630B8F46031A8F4E72FAE
:10190000F0E096E0899FE00DF11D112484E0EE0FD8
:10191000FF1F8A95E1F7E60FF11DEE0FFF1FE4555B
:10192000FF4F85919491089580E090E00895CF93C2
:10193000DF93EC0182389105A9F1D8F58133910547
:1019400009F496C048F58932910509F48AC08A974E
:1019500009F495C0C11522E5D20708F0B6C0C1153B
:1019600031E5D30708F026C1C83ED10508F09CC078
:10197000C03ED10560F5C83AD10508F087C0C53A28
:10198000D10508F0EFC0C130D10509F12097F9F079
:10199000C430D105E0F440C08533910509F45AC044
:1019A000C997C1F68091B606837089F0C0EED0E089
:1019B0000EC0833E910599F170F4803E910501F1CE
:1019C000823E910539F68091B60682FD21C0CE0196
:1019D000DF91CF910895863E910561F1873E910593
:1019E00071F1843E910509F0B5CF8091B70681FF72
:1019F000EECF8091B606C7EED0E084FD0DC0E7CFF4
:101A00008091B60680FD07C19091B70690FFDFCFA9
:101A1000C3EED0E084FFDBCFD0E0C0E0D8CF809130
:101A2000B60682FDFBC09091B70690FDBFCF84FF44
:101A3000CECFF2CF8091B60683FDDDCFC8CF8091A7
:101A4000B60683FDEEC09091B70691FFF0CFC4EECD
:101A5000D0E0BDCF8091B60685FFB9CFC9E2D0E016
:101A6000B6CF8091B60685FFB2CFC5E3D0E0AFCF49
:101A70008091B60686FFABCFCAE2D0E0A8CF8091B6
:101A8000B60686FFA4CFC1E3D0E0A1CFCF3BD105FE
:101A900018F6C85AD0E0CC0FDD1FC15EDE4F0990AA
:101AA000D881C02DD46493CFC11540E5D40708F088
:101AB00064C0C11580E4D80708F05CC0CE019A95D7
:101AC00081159F4108F483CFA7CFC11536E5D30711
:101AD00018F5C11545E5D40708F084C0C11584E5A3
:101AE000D80708F07AC09C2F969596959E01237092
:101AF0003327C115D34508F462C0C1E0D0E002C06D
:101B0000CC0FDD1F2A95E2F730E2939FC00111242C
:101B1000C82BD92BDA685BCFC1158AE5D80778F4D2
:101B2000C11599E5D90708F068C0C11528E5D207A5
:101B300008F472CFDC2FCC27C06FD06A48CFCE011B
:101B400090568115904208F067CF8D2F8F710E94BB
:101B5000380C90E0982F882788279F719C012C2BA8
:101B6000E90149C0C55AD0E0C45EDE4FC881D0E06B
:101B7000D0642DCFDF70D06A2ACFCE01E4E09695F5
:101B80008795EA95E1F783702C2F2695269523708B
:101B900040E2249F90011124382B8C2F8370C1E0E8
:101BA000D0E002C0CC0FDD1F8A95E2F7C22BD32B09
:101BB000DC680DCFDC2FCC27C16FD06A08CFC1E025
:101BC000D0E002C0CC0FDD1F2A95E2F720E2929F01
:101BD000C0011124C82BD92BEBCFDC2FCC27C46F2D
:101BE000D06AF5CE8C2F0E94380CC82FD0E0DC2FA5
:101BF000CC27CC27DF71D062EACE8C2F8F700E9469
:101C0000380C34E0D695C7953A95E1F7CF709C2F04
:101C1000EC01D069DCCEC9E3D0E0D9CEC2EED0E091
:101C2000D6CEC6EED0E0D3CE809182038111109241
:101C30008203089580959091810398239093810366
:101C4000089580915E0390912D03981301C008952B
:101C50008F5F8770FACFB0E0A0E0E1E3FEE00C9484
:101C6000E82A8C01C090AA05D090AB05E090AC05A5
:101C7000F090AD058091830390918403A09185033A
:101C8000B0918603C82AD92AEA2AFB2ACFE1D0E0FC
:101C9000BC2ED701C6010C2E04C0B695A79597950A
:101CA00087950A94D2F780FD09C0219788F7B12C57
:101CB0008B2DCDB7DEB7E9E00C94042BB8018C2F47
:101CC0000E947B0C0E94970C019779F3F1CFCF9380
:101CD000DF93EC010E942B0EBE010E947B0C0E9440
:101CE000970CDF91CF910895963088F5803178F583
:101CF00040E1949F90011124820F932F911D682F32
:101D0000677023E0969587952A95E1F725E0289F4F
:101D1000F001299FF00D1124E551FD4F50E040E006
:101D200080E0219130E0062E02C0369527950A9476
:101D3000E2F721703327042E01C0220F0A94EAF73C
:101D4000822B4F5F5F4F4530510559F7089580E072
:101D500008959630A8F5803198F540E1949F900160
:101D60001124820F932F911D282F277041E001C06D
:101D7000440F2A95EAF723E0969587952A95E1F78F
:101D800025E0289FF001299FF00D1124E551FD4F1A
:101D900030E020E070E05191DF011197CB01022E7D
:101DA00002C0969587950A94E2F781708195852700
:101DB000842385278C932F5F3F4F2530310559F7BA
:101DC0000895FC01808191810E94670E92959F7019
:101DD000963091F058F4925F9F70923058F4803FA3
:101DE00019F030F4883E30F481E008959A5FF4CF22
:101DF000843FD1F380E00895883EB0F3813FD1F76E
:101E0000F3CF8093B8067093BA066093B9068091B9
:101E1000E006843001F582E08093E9008FEF909135
:101E2000E800815095FD06C09AE69A95F1F700C04A
:101E30008111F5CF8091E80085FF0DC050E040E0B2
:101E400063E070E088EB96E00E94C9028091E800B0
:101E50008E778093E8000895BC0184E00E94010F12
:101E60000895BC0183E00E94010F0895CF93DF9392
:101E7000EC01809114018823B1F18091B60687FFAF
:101E800032C060E282E08093E9008FEF9091E80039
:101E9000815095FD06C09AE69A95F1F700C0811130
:101EA000F5CF8091E80085FF1BC08091140170E0A0
:101EB00050E040E0811104C050E040E068E070E094
:101EC000CE010E94C9028091E8008E778093E800DD
:101ED00080E2FE01AEEBB6E001900D928A95E1F74B
:101EE000DF91CF91089568E081E0CDCF3E9A38B17F
:101EF0003F7B28B120644FB7F8948FEA95E0FC014E
:101F00005191CF0168E028B957FF38B9550F00004B
:101F100000C038B96A95B9F7F6E08B3A9F0779F7B0
:101F20004FBF8FE292E00197F1F700C000000895E3
:101F30001F93CF93DF93EC01FC01ED58FD4F80819F
:101F40006823B1F00E94622B182F0E94622B8F77BA
:101F5000782F20E8720F08F47FEF612F80911E0721
:101F60000E94EB08462F282F672FCE010E945007B2
:101F7000DF91CF911F910895B0E0A0E0E2ECFFE087
:101F80000C94EA2A8C01FC01ED58FD4F80816823F6
:101F900049F1D0901D07D0911E07C0911C07EC2E6F
:101FA000F12C0E94622B282FC7018C549F4F68E6AA
:101FB00071E00E94C52A8E199F0997FD0396959599
:101FC00087959595879523706C2F289F600D112418
:101FD0007D2D8D2F0E94EB08462F282F672FC801DB
:101FE0000E945007CDB7DEB7E7E00C94062BEBE17B
:101FF000F7E085E380838091190190911A01A09107
:102000001B0181839283A3838FE784838FEF858372
:1020100046E050E06CE170E0CF010E94A62B1092E8
:102020001A070895B0E0A0E0E8E1F0E10C94E12A9D
:10203000782E80911301871124C090911B07937013
:102040002091120130E081E09217130609F480E03C
:102050008170809317018091200790911601981745
:1020600039F08093160140E060E080E00E944D0767
:102070002CE2271560F0E72DF0E0E15CF34D0C94C5
:10208000D92A81E0E5CF80911701811119C0C0E004
:10209000809115018F5F80931501C1110CC082E002
:1020A0008093180180911701811105C0711003C040
:1020B00083E080931801CDB7DEB7E0E10C94FD2AF0
:1020C00040E060E080E00E944D07E1CFC091150143
:1020D00081E1C89FC02D112411E11C0F012F15357E
:1020E00008F004E560911C0770911D0780911E07A0
:1020F0000E94EB08F62EE72ED82ED0E0C01720F075
:10210000C1E0143528F2C3CFFE01ED58FD4F8081A8
:1021100090911601892331F02D2D4F2D6E2DCE017A
:102120000E9450072196EACFC091150181E1C89F16
:10213000C02D112411E11C0F012F153508F004E505
:10214000E0901D07F0901E07D0911C076D2F7E2D8B
:102150008F2D0E94EB08D62EC72EB82E60911F0738
:102160006D0F7E2D8F2D0E94EB08F62EE72EA82EE8
:10217000D0E0C01728F6FE01ED58FD4F9081809108
:102180001601892359F02A2D4F2D6E2D90FD03C085
:102190002B2D4D2D6C2DCE010E9450072196E9CF9D
:1021A000C091150181E1C89FC02D112411E11C0FC0
:1021B000F12E153510F044E5F42EE0901D07D09077
:1021C0001E0720911F0700E4029F012D1124D0E07B
:1021D000CF1508F095CFFE01ED58FD4F808190910D
:1021E00016018923B9F0FE01EE0FFF1FE453FE4FE5
:1021F000808182958F7060911C07809F600D1124F3
:102200007E2D8D2D0E94EB08462F282F672FCE01A3
:102210000E9450072196DCCFC091150181E1C89F33
:10222000C02D112411E11C0FF12E153510F024E5FD
:10223000F22EE0901D07D0901E0720911F0700E4AA
:10224000029F012D1124D0E0CF1508F059CFFE01D7
:10225000ED58FD4F8081909116018923D9F0FE0140
:10226000EE0FFF1FE553FE4F6081069FB001112462
:1022700095E0759567959A95E1F780911C07680F31
:102280007E2D8D2D0E94EB08462F282F672FCE0123
:102290000E9450072196D8CFC091150181E1C89FB7
:1022A000C02D112411E11C0F012F153508F004E594
:1022B000F0901C07D0911D07E0901E0760911F074A
:1022C0006695669566958091EA069091EB060E9468
:1022D000CE080E941F08805887FD8195880F282FFF
:1022E0003E2D239F212D1124822F6F2D7D2F0E94A3
:1022F000EB08F62EE72ED82ED0E0C01708F000CF5E
:10230000FE01ED58FD4F808190911601892331F037
:102310002D2D4F2D6E2DCE010E9450072196EDCF11
:1023200084E297E00E94BC0A07C08AEF96E0FACFE9
:1023300081E098E00E94C90BC82FAACE82EE97E0F8
:10234000F9CF87EC97E00E945C0BF6CF8BEA97E021
:10235000FACF88EF96E0E6CF8FEE96E0E3CF86EEF9
:1023600096E0E0CF8DEC96E0DDCF8FEB96E0EBCF03
:1023700086EA98E0DFCF8AE997E0DCCF86E897E04D
:10238000E2CF82E996E00E94060BD6CF84E696E083
:10239000FACF8DE296E0F7CFC0911701C1111EC0B0
:1023A00060911F0720E1620F08F46FEF8091EA0649
:1023B0009091EB060E94CE086AE070E00E94B12A7C
:1023C000892B09F064CE0E94622B64E570E00E94C4
:1023D000C52A609116010E94BC0F5ACEC09115010A
:1023E00081E1C89FC02D1124B1E1FB2EFC0E0F2D01
:1023F00084E58F1508F404E5D0E010E0C017D1079C
:1024000034F0C1E093E59F1508F042CE40CE6091D4
:102410001601CE010E94BC0F2196F0CFC09117018A
:10242000C1111EC060911F0720E1620F08F46FEF19
:102430008091EA069091EB060E94CE0865E070E07C
:102440000E94B12A892B09F022CE0E94622B64E5FA
:1024500070E00E94C52A609116010E94980F18CE64
:10246000C091150181E1C89FC02D1124A1E1FA2E70
:10247000FC0E0F2DA4E5AF1508F404E5D0E010E044
:10248000C017D10734F0C1E0B3E5BF1508F000CEA6
:10249000FECD60911601CE010E94980F2196F0CFDB
:1024A000C091150181E1C89FC02D112411E11C0FBD
:1024B000012F153508F004E5E0901D07F0901E0788
:1024C000D0911C0760911F0766956695669580916F
:1024D000EA069091EB060E94CE080E941F088058E1
:1024E00087FD8195880F682F2CE0629F612D112454
:1024F0006D0F7E2D8F2D0E94EB08F62EE72ED82E25
:10250000D0E0C01708F0FCCDFE01ED58FD4F8081F2
:1025100090911601892331F02D2D4F2D6E2DCE0176
:102520000E9450072196EDCF8EE398E0FBCE8CE120
:1025300096E0F8CE4091B0035091B1036091B203A0
:102540007091B3038091EA069091EB06A091EC069E
:10255000B091ED0684179507A607B70708F497CD45
:102560000E946108182F0E94610894E5891BF0F70A
:10257000890FC82FD0E0FE01ED58FD4F8091160164
:102580009081892309F478C020E040E060E011FDEB
:1025900013C00E946108182F0E946108782F769559
:1025A0002FE7720F08F47FEF612F80911E070E94C2
:1025B000EB08462F282F672FCE010E94500720914D
:1025C0001F0730E1230F08F42FEF60E1822F90E026
:1025D0000E94CE08BC0184EF91E00E94B12A809154
:1025E000EA069091EB06A091EC06B091ED06860FFD
:1025F000971FA11DB11D8093B0039093B103A093C9
:10260000B203B093B30343CD4091B0045091B104F1
:102610006091B2047091B3048091EA069091EB0648
:10262000A091EC06B091ED0684179507A607B707B1
:1026300008F42DCD80911701811120C0C0911501A2
:1026400081E1C89FC02D112411E11C0F012F153508
:1026500008F004E5EC2EF12CF3E0CF9FE00111240B
:10266000CC54DC4FE01608F444C0E4EBF3E08DEA10
:1026700094E0143508F056C0C1E00ACD40E060E0B7
:1026800080E00E944D0704EB13E0D0E0C0E0FFE7DC
:10269000DF2E0E94610881FF0EC0D8011C921196A6
:1026A0001C92119712961C9221960D5F1F4FC435F4
:1026B000D10579F7C3CF0E946108C82E0E94610836
:1026C0008695782F2D2D720F08F47FEFCE01880F9D
:1026D000991F8C0F9D1FDC01AC54BC4F7D016C2DEC
:1026E00080911E070E94EB08F7016083718382834B
:1026F000DBCFF701ED58FD4F8081909116018923C2
:1027000031F02A8148816981C7010E9450072396D0
:10271000FFEFEF1AFF0AA6CF238134814581219371
:10272000319341938E179F07B9F70E94610881FF8B
:102730001FC01092AD041092AE041092AF040E941C
:10274000D8080091EA061091EB062091EC06309132
:10275000ED06DC01CB01800F911FA21FB31F8093F8
:10276000B0049093B104A093B204B093B3048FCC9F
:102770000E946108C82F0E9461088695782F2FE774
:10278000720F08F47FEF6C2F80911E070E94EB08F8
:102790006093AD047093AE048093AF04D0CF4091AA
:1027A00014055091150560911605709117058091DB
:1027B000EA069091EB06A091EC06B091ED06841725
:1027C0009507A607B70708F462CC80911701882304
:1027D00029F040E060E080E00E944D0760911C0716
:1027E00070911D0780911E070E94EB08962E872E80
:1027F000682EC4EBD4E00BE611E06FE0C62ED12CBE
:1028000058017E01512CD5018D915D0190E0F701B9
:102810002081222309F475C0262D492D682D0E94A0
:102820005007D70111968C91F70181937F01539442
:10283000F7E05F12E8CF76015FE0552E97012C5448
:102840003B4F5901F701E559FE4F808190E0D901D6
:102850002C91222309F459C0262D492D682D0E9460
:102860005007F50131978081F50180835A94F1E09A
:10287000EF1AF10828E05212E1CFD80118968C9196
:1028800090E02885222309F444C0262D492D682D87
:102890000E945007F801878190E02F812223E9F1FF
:1028A000262D492D682D0E9450070E9461088370D3
:1028B00091E009F090E09F8398876096005F1F4F3A
:1028C000F0E1CF0ED11C2FE6C216D10409F098CF4B
:1028D0000E94D8080091EA061091EB062091EC06C0
:1028E0003091ED06DC01CB01800F911FA21FB31FB9
:1028F0008093140590931505A0931605B0931705C2
:10290000C6CB20E040E060E08ACF20E040E060E01D
:10291000A6CF20E040E060E0BBCF20E040E060E0F8
:10292000C2CFC091150181E1C89FC02D112441E1A2
:10293000542E5C0E152D30E6351508F410E6809106
:102940001701882361F040E060E080E00E944D07BD
:10295000EDE1F5E080E6DF011D928A95E9F78091CF
:102960001501811115C08091190590911A050E94D9
:10297000130421E08931910508F420E02093180523
:10298000499730F00E94220490931A05809319050C
:10299000D0E0C12ED12C26E0822E912C3AEA432E93
:1029A000CC15DD0534F0C1E0BFE5B51508F070CBFE
:1029B0006ECBCE01B4010E94C52A5B018C0194E06C
:1029C000000F111F9A95E1F7F801E35EFA4FE60F49
:1029D000F71F6080F801E559FE4FE60FF71F808171
:1029E0008F3F59F1E82EF12CF701ED58FD4F808112
:1029F00090911601892309F1362D25E5321B08F443
:102A000030E070911D07242D462D240F08F42FEF80
:102A100040911E07822F880F820F8E5F282F249FE0
:102A2000212D1124822F642D631B0E94EB08462F59
:102A3000282F672FC7010E9450078091180588230F
:102A400061F0362D41E0341B08F430E0632E035E64
:102A50001A4FA00EB11ED5013C932196A1CF9090A4
:102A60001E07E3E09E9EE0011124D695C795D695FA
:102A7000C7955C2EC92CD12C8FEF90E0B6010E9437
:102A8000C52A862E80911701882371F040E060E00E
:102A900080E00E944D07EDE1F5E080E6DF011D9248
:102AA0008A95E9F710921C0580911B058F5F809332
:102AB0001B0510E000E0CC1ADD0A7801612CC8018A
:102AC000835E9A4F5C0180911C05862909F040C005
:102AD0000E94622B85359540DCF5F5019082F70167
:102AE000E559FE4FE081EF3FC9F0D701A35EBA4F31
:102AF0002C91F0E05216E0F530E02C1B3D0B2C9FA2
:102B0000C0012D9F900D3C9F900D1124B6010E9495
:102B1000B12A262F492DCF010E9450076394F0E17E
:102B2000EF0EF11C26E06212CECF0F5F1F4F003177
:102B3000110519F680911B05881202C010921B0521
:102B400080911C058F5F8D31E8F480931C059FCA2E
:102B5000F701E35EFA4F8081882309F2891508F0B6
:102B6000BECF90911B058912BACF81508083B7CF19
:102B7000929EC0011124BE010E94B12A462F20E07E
:102B800060E0C9CF10921C054DE555E025E06DE2EF
:102B900075E03FEF390D8DE195E0FA01253039F40C
:102BA000DC01A05BBF4FCC919C1201C03C93A19172
:102BB000A91520F0DF0111973C93978601966817BD
:102BC000790761F72150405151092111E4CF5FCAC3
:102BD00085E196E00E94490AAFCB8FE096E0FACFFC
:102BE0008091EE0621E0382F321B08F430E0832F6D
:102BF00066EF75E00E947F099FCB66EF75E080E08D
:102C0000F9CF8091EE0621E0482F421B08F440E006
:102C1000842F6BEB75E0EECF6BEB75E0F0CF80911E
:102C2000EE0621E0382F321B08F430E0832F69E8EC
:102C300075E0E0CF69E875E0E2CF8091EE0621E033
:102C4000482F421B08F440E0842F61E775E0D2CFA3
:102C500061E775E0D4CF8091EE0621E0382F321B7A
:102C600008F430E0832F6BE575E0C4CF6BE575E0C9
:102C7000C6CF8F929F92AF92BF92CF92DF92EF9288
:102C8000FF921F93CF93DF938091A6059091A705A4
:102C9000A091A805B091A9052FB7F8948090B2062D
:102CA0009090B306A090B406B090B5062FBF750102
:102CB0006401C81AD90AEA0AFB0A2FB7F8944091AE
:102CC000B2065091B3066091B4067091B5062FBF5D
:102CD0004093A6055093A7056093A8057093A90596
:102CE00010917D05EDE7F5E0C12FD0E00197AF4FE2
:102CF000BF4F88199909AA09BB091D1327C0C093A2
:102D00007D058091AE05C0E0811108C080911B0750
:102D1000C82FC37019F0C82FC695C69580911801A9
:102D20008130F1F1882329F1823009F479C18330AF
:102D300009F481C1DF91CF911F91FF90EF90DF9057
:102D4000CF90BF90AF909F908F900895218D328D3E
:102D50004901B12CA12C88159905AA05BB0520F4C1
:102D6000C150DF5F3296C9CF2C0D3D1D328F218FB0
:102D7000F8CF109215014093EA065093EB0660934A
:102D8000EC067093ED0689E2EDE7F5E0AEEEB6E015
:102D900001900D928A95E1F781E080931801CACFE6
:102DA0008C2F0E941210CC2329F2D091150181E1C1
:102DB000D89FD02D1124CFEECD0F0E94B90481FFF2
:102DC0000BC088EE8D0F823138F422E442E462E4D5
:102DD00088E190E00E9450078091AA059091AB0590
:102DE000A091AC05B091AD05AD016627772720E035
:102DF000411551056105710519F0DB01CA0120E19A
:102E0000492F5A2F6B2F7727411551056105710501
:102E100019F0285FDB01CA01AC01BD01F4E0769531
:102E2000679557954795FA95D1F741155105610575
:102E3000710519F02C5FDB01CA01AC01BD01E2E0B4
:102E40007695679557954795EA95D1F741155105C0
:102E50006105710519F02E5FDB01CA01B695A795D2
:102E600097958795892B8A2B8B2B09F463CF21119A
:102E700061CFC53408F076C0D43438F022E442E49F
:102E800062E484E490E00E945007D53408F06DC0FD
:102E9000C53008F472C0C53009F07EC0D53008F0E6
:102EA00073C0DF3238F022E442E462E48FE290E063
:102EB0000E945007D03338F022E442E462E480E319
:102EC00090E00E945007D13338F022E442E462E4FB
:102ED00081E390E00E945007D23338F022E442E4CC
:102EE00062E482E390E00E945007D33508F47FC08B
:102EF00022E442E462E483E590E00E945007C43497
:102F000008F059C022E442E462E483E490E00E94C5
:102F10005007C53308F04FC022E442E462E484E382
:102F200090E00E945007C33208F472C0C43208F027
:102F300042C0D33248F022E442E462E483E290E00B
:102F40000E945007D533E0F5C43108F042C0D331B8
:102F500008F442C022E442E462E483E190E00E948B
:102F600050073AC0C53409F097C022E442E462E455
:102F700085E490E00E9450078BCF22E442E462E4B3
:102F800084E090E00E94500722E442E462E485E09D
:102F900090E00E94500785CFC03308F482CFC03341
:102FA00009F488CFC13309F48ECFC23309F494CF2A
:102FB000C43508F49ACFC63308F0BCCED53348F0F8
:102FC00022E442E462E485E390E00E945007C431C9
:102FD00008F2C53108F0AECED43108F4ABCE22E40D
:102FE00042E462E484E190E00E945007A3CEC4343E
:102FF00010F7D33408F086CFC53308F097CFD43319
:1030000008F08ACFC33208F043C0D23208F491CF1F
:1030100022E442E462E482E290E00E94500789CF19
:10302000C093130180911B078370809312010E944B
:10303000760F83E0B2CE80911A07882351F046E0E4
:1030400050E06CE170E08BE197E00E94A62B1092BB
:103050001A074091EA065091EB066091EC067091D8
:10306000ED062FB7F8948091B2069091B306A09127
:10307000B406B091B5062FBF841B950BA60BB70BFA
:103080004097A105B10508F455CE1092180152CE13
:10309000C33209F09ECF4DCFC43508F04BCE25CFBB
:1030A000CF9384E090E00E94982BC82F82E290E0BA
:1030B0000E94982B982F8C2FCF910895ACE0B0E010
:1030C000E4E6F8E10C94E12A8E010F5F1F4F8CE0DB
:1030D000F80111928A95E9F79DE4E92E91E0F92E25
:1030E000680123E5422E21E0522E66246394712C60
:1030F00043E6842E41E0942EF70181917F018F3FBA
:1031000009F445C0F894E82FE295EF70F0E021A1B2
:103110008F70A30102C0440F551F8A95E2F7CA01C0
:10312000922F982B91A392A18095892382A37894C2
:1031300000C0E3E5F1E021E030E0B12CA12C4191A9
:103140004F3F09F486C0A42FA295AF70B0E09096CF
:103150008C9190E04F7002C0959587954A95E2F763
:1031600080FD77C0C901A82AB92A220F331F8E1605
:103170009F0629F7F701319780818F3F11F00E9458
:10318000210C50E55A95F1F7F601B182A082F2E0E8
:10319000CF0ED11C4E145F0409F0AECF4CE050E0CE
:1031A000B8018AE893E00E94722BFF24F394009701
:1031B00009F4F12C892B09F44FC08CE0F801AAE83E
:1031C000B3E001900D928A95E1F781E08093890345
:1031D0000E94220490938803809387038091870341
:1031E000909188030E9413040597D0F180918A037F
:1031F00090918B03909397038093960380918C0317
:1032000090918D03909399038093980380918E03FE
:1032100090918F0390939B0380939A0380919003E6
:103220009091910390939D0380939C0380919203CE
:103230009091930390939F0380939E0380919403B6
:10324000909195039093A1038093A003109289031A
:1032500007C090E080E087CF809189038111BECFC5
:103260008F2D2C96E0E10C94FD2A809181039091A2
:103270008003892B8093CA02909182039923A1F045
:10328000892B8093CA02809114018823E1F18091F7
:10329000B60687FF38C08EE1ECECF2E090E081509A
:1032A000A0F591110E94140E40E250E060E673E038
:1032B0008AEC92E00E94722B892B21F180E2EAECE9
:1032C000F2E0A0E6B3E001900D928A95E1F7E0917B
:1032D000AD06F091AE063097A9F0809114018823D5
:1032E00059F08091B60687FF07C08091CA0280938B
:1032F000CB0286E08093CA020280F381E02D8AEC43
:1033000092E00995089586E0C7CF2191222339F2F2
:103310009F5FC5CF90E080E00E94A30490E080E032
:103320000E948D04109280030E94351908956093C5
:10333000AA057093AB058093AC059093AD050E94F0
:103340008A1908950F931F9341E050E060E070E008
:1033500004C0440F551F661F771F8A95D2F7CB0113
:10336000BA0160957095809590950091AA0510918D
:10337000AB052091AC053091AD056023712382230C
:1033800093230E9497191F910F91089590915F03C5
:103390008095892380935F03282F277091F4282F2D
:1033A000082E000C330B9217130659F09091B706B4
:1033B00092FF07C08595859585950E94A219109268
:1033C0005F0308950F931F9341E050E060E070E0C9
:1033D00004C0440F551F661F771F8A95D2F780914E
:1033E000AA059091AB05A091AC05B091AD058A01FD
:1033F0009B01082B192B2A2B3B2BC901B8010E94DA
:1034000097191F910F91089560938303709384031C
:1034100080938503909386030E948A1908951092E1
:10342000810380911401ECECF2E0882361F080913B
:10343000B60687FF08C08EE1DF011D928A95E9F785
:103440000E948A19089586E0F7CFAAE2B0E0EBE285
:10345000FAE10C94EE2A82EE96E02091F100FC0154
:103460002193CF01F6E08A3E9F07B9F78091E306EA
:10347000833009F470C0B8F4813009F447C0823059
:1034800009F4B1C08091E80083FF7EC28091E2061A
:103490009091E3069A3008F077C2E92FF0E0E45902
:1034A000F34D0C94D92A8A3009F48CC08B3009F47E
:1034B0006FC0893039F78091E206813219F7809127
:1034C000E6069091E7060297E8F68091E800877F8C
:1034D0008093E8008091E80082FF38C09091F3006B
:1034E0008091F200029731F48091F100813011F067
:1034F000863021F48091F1008093BD068091E80030
:103500008B778093E8000E94F302BCCF8091E206A3
:10351000813A09F0B7CF8091E800877F8093E80077
:103520008091E6069091E706892B61F460E28EEBCC
:1035300096E070E00E949F038091E8008B77809373
:10354000E800A0CF60E090E080E0F3CF8091E0065B
:103550008111C0CF97CF8091E206813A09F092CFD6
:103560008091E6069091E706892B09F08BCF809138
:10357000E800877F8093E8008091E80080FFFCCF1F
:10358000809114018093F1008091E8008E77B9CF8B
:103590008091E206813209F075CF8091E606909124
:1035A000E706892B09F06ECF8091E800877F809332
:1035B000E8000E94F3028091E406809314010E94C7
:1035C0000F1A60CF8091E206813209F05BCF8091C3
:1035D000E800877F8093E8000E94F3028091E5066F
:1035E0008093BC064FCF8091E206813A09F04ACF22
:1035F0008091E800877F8093E8008091E80080FF59
:10360000FCCF8091BC06BECF803899F0823809F09B
:10361000BBC18091E6068F70873008F0B5C18093FA
:10362000E9008091EB0085FB882780F91092E90082
:1036300006C08091DE069091DF0691118260909124
:10364000E800977F9093E8008093F1001092F100DA
:103650008091E8008E7794C1882309F482C182307A
:1036600009F092C18091E406811185C18091E6063E
:103670008F702FEF280F263008F086C18093E90065
:103680002091EB0020FF77C1933031F48091EB0063
:1036900080628093EB006FC19091EB0090619093FA
:1036A000EB0021E030E001C0220F8A95EAF7209379
:1036B000EA001092EA008091EB008860EACF811165
:1036C00063C11091E4061F778091E3008078812B1D
:1036D0008093E3008091E800877F8093E8000E9458
:1036E000F3028091E80080FFFCCF8091E3008068C6
:1036F0008093E30082E0111183E08093E00644C1EF
:103700008058823008F040C18091E4069091E5062F
:103710008C3D23E09207A1F583E08A838AE28983C6
:103720004FB7F894DE01139620E03EE051E2E32F1C
:10373000F0E050935700E49120FF03C0E295EF7052
:103740003F5FEF708E2F90E0EA30C0F0C7968D9308
:103750009D932F5F243159F74FBF8091E800877FF9
:103760008093E8006AE270E0CE0101960E949F0318
:103770008091E8008B778093E80006C1C096E7CF80
:103780004091E6065091E706292F33272330310573
:1037900009F444C078F52130310509F46FC08BE39A
:1037A00090E0E9EDF3E02230310509F0EDC0209121
:1037B000E800277F2093E8002091E8063091E90691
:1037C0008217930708F49C0140E02115310509F0A8
:1037D00064C0411162C08091E80082FDC9CF809130
:1037E000E006882329F2853019F28091E80083FFF2
:1037F000F2CFBECF21323105A9F12232310509F0D5
:10380000C3C04115510509F443C04130510509F0C9
:10381000BBC08DE690E0ECE2F3E0C9CF99278130A0
:103820009105C1F0009759F0029709F0ADC0E6E2AA
:10383000F4E0E4918E2F90E0E6E2F4E007C0E8E5E2
:10384000F4E0E4918E2F90E0E8E5F4E0009709F4CD
:103850009BC0ADCFECE4F4E0E4918E2F90E0ECE47B
:10386000F4E0F4CF4115510571F04130510509F0F4
:103870008BC089E090E0E4E0F4E099CF82E190E051
:10388000E4E1F4E094CF89E090E0EBEEF3E08FCF59
:1038900080E490E0E9E9F3E08ACF8091E0068823B4
:1038A00009F466CF853009F463CF8091E80083FD89
:1038B0005FCF8091E80082FD8ECF8091E80080FF8D
:1038C00084CF9091F3008091F2002115310519F019
:1038D0008830910550F041E0089709F040E0809170
:1038E000E8008E778093E80070CF44914093F10018
:1038F0003196215031090196E8CF803809F044C053
:103900008091E800877F8093E8008091E1068093B2
:10391000F1009ECE811138C01091E4061230A0F55E
:103920008091E800877F8093E8001093E1060E9471
:10393000F302112311F084E005C08091E30087FDBC
:10394000FACF81E08093E00642E061EC81E00E94E2
:10395000120342E261EC82E00E9412038091E006D1
:1039600013C08091E406813079F481E0933009F04E
:1039700080E08093DF061092E9008091E800877F65
:103980008093E8000E94F3028091E80083FF0AC060
:103990008091E800877F8093E8008091EB0080624F
:1039A0008093EB00AA96E3E00C940A2B0E940F1A76
:1039B0002FE78AE196E0215080409040E1F700C077
:1039C000000088E19AE00FB6F894A8958093600013
:1039D0000FBE90936000FFCF882321F00E941A0E43
:1039E0000E9435190895882339F090918103982B0E
:1039F000909381030E9435190895882351F19CEF1B
:103A0000980F913A40F4682F8AEC92E00E942E04BD
:103A10000E943519089590E2980F983050F48770FD
:103A200091E001C0990F8A95EAF7892F0E941A0E3A
:103A3000EFCF9BE5980F933028F490E080E00E9450
:103A4000A3040895885A873120F490E080E00E9412
:103A50008D040895CF93C82F8823D9F18CEF8C0F54
:103A6000813AC8F580911401882311F18091B6063E
:103A700087FF1EC0EC2FE695E695E695F0E0E6534D
:103A8000FD4F828190E04C2F477021E030E002C072
:103A9000220F331F4A95E2F782239323892B91F05B
:103AA0006C2F8AEC92E00E942E040E9435190AC005
:103AB000ECECF2E082ED92E02191C21789F38E17CF
:103AC0009F07D1F76C2F8AEC92E00E9458040E9465
:103AD0003519CF91089580E28C0F883068F4C77053
:103AE00021E030E001C0220FCA95EAF780918103FE
:103AF000822B80938103EBCFEBE5EC0FE33040F4B6
:103B0000F0E0E45EFE4F808190E00E94A304E1CFEC
:103B1000C85AC731F0F6EC2FF0E0EE0FFF1FE15E60
:103B2000FE4F808191810E948D04D3CF0F931F930C
:103B3000CF93DF93C62FD42F022FFC0182818823DD
:103B4000A9F0609319070E942204909318078093AC
:103B50001707C77081E001C0880FCA95EAF70E9475
:103B6000F31CDF91CF911F910F9108958091190758
:103B7000681335C080911707909118070E941304AD
:103B8000883C910560F510E21D0FCD17B9F080E279
:103B90008C0F883040F4C77081E001C0880FCA954F
:103BA000EAF70E94EC1C183048F481E09D2F9770D2
:103BB00001C0880F9A95EAF70E94F31C802F0E949B
:103BC0002A1D802F0E94FD1C183058F6D77081E006
:103BD00001C0880FDA95EAF70E94EC1CC2CFC770CB
:103BE00081E001C0880FCA95EAF7F6CF68EE7EEF54
:103BF00090E080E00E94D42B60E082E090E00E94A0
:103C0000B62B60E083E090E00E94B62B1092830315
:103C100010928403109285031092860360E084E082
:103C200090E00E94B62B64E082E290E00E94B62B06
:103C300060E085E090E00E94B62B60E086E090E0D6
:103C40000E94B62B6FEF87E090E00E94B62B40E019
:103C500050E0BA0188E090E00E94C82B60E08DE05F
:103C600090E00E94B62B40E050E0BA0188E190E07D
:103C70000E94C82B60E087E190E00E94B62B40E0F4
:103C800050E0BA018CE190E00E94C82B70E060E047
:103C900080E290E00E94D42B40E050E0BA0188E13D
:103CA00090E00E94C82B40E050E0BA018FE090E025
:103CB0000E94C82B40E050E0BA0183E190E00E94EE
:103CC000C82B0895CF93C091B706C2FB992790F9EE
:103CD000981791F080FBC2F9C093B7066091B606C1
:103CE00084E090E00E94B62B6C2F82E290E00E946C
:103CF000B62B82E00E94C619CF910895A5E0B0E0EE
:103D0000E4E8FEE10C94E12A7C01FC0183819481CA
:103D1000892B31F08081918189238F3F09F0BAC4CA
:103D20002596E0E10C94FD2A0E942B0E182F682F97
:103D300089819A810E94A90E69817A81812F0E94CE
:103D40007B0C8C01843FFCE59F0709F483C018F5C8
:103D5000893D9C4509F47AC00A3D8CE5180709F4B1
:103D600089C0083D9CE5190709F526E241EE61EEA0
:103D7000C7010E94961D80915F03877089F2F70149
:103D80008281882369F28091B70682FFC9CF82E0E1
:103D90000E94C619C5CF863FECE59E0709F462C0B4
:103DA00008F45CC0873F9C4509F460C0F70182813C
:103DB000882309F480C4109219070430FDE51F0719
:103DC00008F05BC00B3F2CE5120730F4C8018250AD
:103DD0009C45449708F05BC00E9450189093B7062A
:103DE0008093B60601319CE5190709F42BC108F050
:103DF000A7C00930FCE51F0709F40EC108F072C026
:103E000005303CE5130709F4FFC008F057C0033044
:103E10009CE5190709F4EEC008F0F2C08091B606DF
:103E200081600230FCE51F0709F4E7C06091B60627
:103E30001091B70684E090E00E94B62B612F82E2D9
:103E400090E00E94B62B0E940F1A95CF27E245EE14
:103E500065EE8ECF26E241EE60EE8ACF27E245EE98
:103E600064EE86CF26E241EE62EE82CF27E245EE97
:103E700066EE7ECF28E241E0EBCF02363DE5130748
:103E800009F4AACF063A8DE5180709F4A5CF063143
:103E90002CE5120709F01DC4809181038A7A91E014
:103EA00009F490E09093EA0269E2811165E38AECFB
:103EB00092E00E9458040E9435195DCF8091B606A9
:103EC000806207302CE5120709F497C08091B6068E
:103ED000806108303CE5130708F48FC08091B60676
:103EE00080648BC00D308CE5180709F49FC0A0F4E6
:103EF0008091B6068E7F0B30ECE51E0709F47DC07D
:103F00008091B6068C600C30FCE51F0708F475C084
:103F10008091B6068D7F71C08091B6068F7E0F307E
:103F20002CE5120709F469C08091B606877F00313D
:103F30003CE5130708F461C08091B6068F7D5DC033
:103F40000E3F8CE5180709F479C058F50531ECE50A
:103F50001E0709F481C098F48091B606837F03316F
:103F60002CE5120709F449C008F470C00E940F1A2A
:103F70009091B606892F97FB87F980583EC00C3F79
:103F80008CE5180709F444C008F054C08091B706C6
:103F900081600B3FECE51E0709F048CF8093B70620
:103FA00045CF0230FDE51F0709F462C090F480910F
:103FB000B7068C7F01153DE5130781F398F18091D9
:103FC000B706982F909591708E7F892B90FB81F981
:103FD000E5CF02369DE5190709F450C0063AEDE534
:103FE0001E0709F452C00330FDE51F0709F01ECF7C
:103FF00060E03FC08091B60682608093B60616CF1F
:104000008091B6068460F9CF8091B6068860F5CFBE
:104010008091B7068260C2CF0E940F1A8091B606C7
:104020008068EBCF8091B7068360B8CF8091B606E9
:104030008B7FE3CF8091B7068E7FB0CF8091B7069C
:104040008D7FACCF8091B6068F7BD7CF0E940F1AA1
:104050008091B6068F77D1CF8091B60682FB9927E3
:1040600090F921E0922790FB82F990FB83F9C5CF6C
:1040700061E08EE090E00E94B62BD8CE9091B6061B
:10408000892F8F7E94FF8061B8CF9091B606892FDB
:104090008E7F90FF8160B1CF46E455E060E575E02A
:1040A0000E94C60468CE40E555E066E475E0F8CFAE
:1040B00042E355E06CE375E0F3CF4CE355E062E397
:1040C00075E0EECF48E155E065E275E0E9CF45E205
:1040D00055E068E175E0E4CF4BE055E06EEF74E049
:1040E000DFCF42EE54E060EF74E0DACF40EF54E00F
:1040F00062EE74E0D5CF81E00E944D023CCE8DE0AF
:10410000FBCF0E940F1A3FE78AE196E031508040D2
:104110009040E1F700C000000E9402048091B706C1
:1041200082FB882780F991E089270E94621EF701AF
:10413000828100811181882309F445C0C8010E9451
:104140002B0ED82E682FC8010E94A90EB8018D2D04
:104150000E947B0C0E94970C8C01882EF701D28064
:10416000958092943FE0932280915F038770C1F025
:10417000BD2CDD20B1F0812F807F803421F080E2E2
:10418000800F883068F08091B70682FF09C082E016
:104190000E94C61980915F038770BB24B39481117C
:1041A000B12CA12EA2942FE0A222FBE0FA1508F474
:1041B00076C0EA2DF0E0EA58F34D0C94D92A81E05C
:1041C000B4CF80E0B2CFC8010E94740ED82EBECF0B
:1041D000212F2F70C22E107F19F0C29490EFC922A8
:1041E000DD20B9F0CC2069F080E2800F883010F03B
:1041F000811009C080918103C82AC09281030E9466
:104200003519802F4AC080918003C82AC09280034C
:10421000F6CF802F0E94FD1CCC2009F440C0005E28
:10422000083010F0811004C08C2D0E941A0E06C0B8
:10423000C09480918003C822C09280030E943519E7
:104240002EC0312F3F70C32E107F103219F0C29450
:1042500080EFC822882089F081E0881609F477C0B1
:10426000DD2009F481C0992009F477C0F701858128
:1042700080FFC7CF8F70858370C02091B70622FD65
:1042800043C0DD20D9F1CC2039F080918103C82AC8
:10429000C09281030E94351980E00E942A1DEA2DF8
:1042A000E850FF0B349710F40E94B904BB20A9F02A
:1042B00080915F0380FD11C0F7011282859585957D
:1042C00085950E94E219C7010E947E1E80915F03BE
:1042D0008595859585950E94A21985E0F701DE01F7
:1042E000119601900D928A95E1F709811A81C80112
:1042F0000E94740EB8010E947B0C12CD80E00E94D7
:10430000FD1CCC2061F290CFDD20A1F090918203C2
:10431000892F8C29911003C00E94F31CC0CFE1E0CB
:104320009E12FACF22FFBBCF981709F4B8CF809323
:104330008203B5CF911006C00E94140E8C2D0E94EE
:10434000EC1CADCFF1E09F1609F4A9CFF5CFDD202D
:1043500031F025E0291508F4A2CF8C2DDDCF34E013
:10436000391508F49CCFEACF992041F3F9E38F1275
:104370008AC12FEF33EF81E0215030408040E1F7D8
:1043800000C0000080C1812F86958695837061F002
:10439000813009F084CFC8019370D11002C090E041
:1043A00080E00E948D047BCFC8019370D11002C0C1
:1043B00090E080E00E94A30472CF812F837009F007
:1043C00066C0D1106CCF802F829586958770880F3C
:1043D000880F602F6F70462E512C712C612C082E87
:1043E00004C0440C551C661C771C0A94D2F740E0AC
:1043F00050E0BA0104FF0FC04FE050E060E070E011
:1044000004C0440F551F661F771F8A95D2F7409549
:10441000509560957095812F869586958370823032
:1044200019F1D8F40091830310918403209185033E
:1044300030918603813069F044295529662977290E
:10444000CB01BA0160237123822393230E94041AB3
:1044500026CF402A512A622A732ACB01BA01642945
:10446000752986299729F2CF442955296629772964
:10447000009183031091840320918503309186037A
:10448000CB01BA016027712782279327DFCF86955A
:10449000DD2011F0812F8170882309F400CF802F57
:1044A000829586958770880F880F602F6F70462ED3
:1044B000512C712C612C082E04C0440C551C661C18
:1044C000771C0A94D2F740E050E0BA0104FF0FC015
:1044D0004FE050E060E070E004C0440F551F661FDD
:1044E000771F8A95D2F74095509560957095812FEA
:1044F000869586958370823019F1D8F40091AA05CB
:104500001091AB052091AC053091AD05813069F07B
:104510004429552966297729CB01BA0160237123E3
:10452000822393230E949719BACE402A512A622AE5
:10453000732ACB01BA016429752986299729F2CFFC
:1045400044295529662977290091AA051091AB05C0
:104550002091AC053091AD05CB01BA0160277127E0
:1045600082279327DFCF1F70DD2029F0812F0E9443
:10457000E219802FD1CE802F0E94EC1C812F0E9447
:10458000A2198DCE802F92EF891609F43FC098159D
:1045900070F0E0EF8E16D1F0F1EF8F1691F0DD2084
:1045A00009F46CC091102DCE812F8F7133C023EF91
:1045B000821699F134EF8312F2CF8091B70682FD13
:1045C0003FC0812F8F71DD20D1F224C0DD20C9F0E2
:1045D00084E0891508F463CE1F7161E070E080E02B
:1045E00090E004C0660F771F881F991F1A95D2F7B5
:1045F0000091AA051091AB052091AC053091AD0555
:10460000ADCF95E0991508F44ACEE6CF812F8F7192
:10461000D110B5CF0E94E21942CE60E070E0CB012C
:10462000DD2009F47FCF1F7161E070E080E090E051
:1046300004C0660F771F881F991F1A95D2F772CF93
:10464000DD2089F01F71812F0E94E2198091B70649
:1046500082FF07C0E8E01E9FC001112483608093A1
:104660005F03812FD7CF81E00E94C619F1E0F915D1
:1046700008F015CE82E00E94C61911CE992039F0BB
:10468000893309F476CE802F0E94FD1C08CE812F3D
:104690008F7175CF85E0DE01119601900D928A959C
:1046A000E1F7F701228189819A8121113DCB0E9496
:1046B000740E182F41CB0631FCE51F0741F58091A0
:1046C000EA0269E2811165E38AEC92E00E942E041D
:1046D000F2CB0B352DE5120709F471CD68F4011505
:1046E0008CE5180709F40DCD0F3D1C4509F01FCDD1
:1046F0000E94F61D0E94D61C0D35EDE51E0709F43B
:104700000DCD08F45ECD083A1D45A1F310CD809182
:10471000810382720B3C3CE5130709F4DDCCB0F554
:10472000063CECE51E0709F4C3CCD0F4043C2CE5B0
:10473000120709F4B1CC08F0B6CC033C8CE518079D
:1047400009F0F5CC80911B0791E0892780931B0726
:104750001092180180911A07816080931A070BCB81
:10476000083C9CE5190709F4ADCC08F4A6CC093C3B
:10477000FCE51F0709F4ABCC4EEF54E06BE075E0AD
:104780000A3C2CE5120709F48BCCD1CC003D3CE56A
:10479000130709F4B4CC98F40D3CECE51E0709F4BA
:1047A000A5CC08F49ECC0E3C2CE5120709F4A3CC52
:1047B00085E00F3C3CE5130709F49ECCB8CC073DDF
:1047C0008CE5180738F482E1023D9CE5190708F4EE
:1047D00093CCD1CA0E35EDE51E0709F4CCCAA7CC9F
:1047E0001F93CF93DF9380912C03807F09F049C002
:1047F00080912903882309F444C080915E03D091FD
:104800002D036091270370912803A0912A03B09192
:104810002B03C62FC72316E0D81799F190E0109705
:1048200011F0CF3F19F401968770F6CF189F9001D1
:10483000199F300D1124F901E25DFC4F41814713AE
:10484000F2CF40814613EFCF42814111ECCF43813B
:1048500054814A1B5B0B483C510528F780912C037F
:104860008F70806180932C03F901ED5CFC4F808197
:104870008F708061808387E293E00E947E1E0E9499
:10488000210EDF91CF911F910895A1E1B0E0EBE4FB
:10489000F4E20C94E72A8C0185E0F801DE011D9614
:1048A00001900D928A95E1F7F801E28087E2A82E47
:1048B00083E0B82E60912A0370912B036115710576
:1048C00009F426C19091270340912803892F84235E
:1048D0008F3F09F41DC120813181C380D480F090C5
:1048E0002903F601E61BF70BFF2009F4DCC08091D9
:1048F0002C03582F507FE83CF10508F09FC0511160
:104900006BC0FE2C431314C0921312C0E11010C0F0
:104910008F70806180932C03C5010E947E1E809160
:104920002C03F80185838F2D6196EAE00C94032B0C
:10493000C114D10429F0822F83238F3F09F003C1D2
:1049400080E0F82FF170DF2E80FF3CC080915E0385
:1049500040912D0356E0841315C02D873E878D8529
:104960009E850E94670E292F22952F702230F0F02D
:10497000243018F59F70F1F0F8019581907FD1F403
:10498000D12C1EC090E0589FF001599FF00D1124CA
:10499000E25DFC4F6181361306C06081261303C0BF
:1049A0006281E6120FC001968770D5CF9F7011F01B
:1049B000882331F3805E883018F3C8010E947E1E80
:1049C000FD2CB1CFEE2009F4AECF80912C03816095
:1049D00080932C03F12CA7CF431306C0921304C07D
:1049E000F801EE2009F479C0C8010E94E10E882385
:1049F00009F1EE20F9F080912C03803270F02091C3
:104A000027033091280338872F831986DB86CA86CF
:104A10008C87CE0107960E947E1E86E0F801A7E2F1
:104A2000B3E001900D928A95E1F70E94F023FF24F4
:104A3000F39479CFC8010E947E1EF9CF51110AC0AC
:104A400087E293E00E947E1E86E0F50111928A952E
:104A5000E9F7C0CF43130FC092130DC0E1100BC094
:104A6000F8018583C8010E947E1E86E0F50111923F
:104A70008A95E9F758CFC8010E94E10E8823D1F248
:104A8000EE20C1F280912C03803238F2209127036E
:104A9000309128033A8329831B82DD82CC828E8366
:104AA000CE010196B8CFE83CF105F8F6FE2CEE20D9
:104AB00009F243131FC092131DC080912C0380FD87
:104AC00010C0982F907F69F0F8018583903F31F0F6
:104AD000982F907F905F8F70892B8583C8010E94EB
:104AE0007E1E86E0F801A7E2B3E001900D928A9560
:104AF000E1F719CFC8010E94E10E81118ECF80919C
:104B00002C03816080932C03C8010E947E1E0BCF72
:104B1000EE2009F48FCFC8010E94E10EF82E882301
:104B200009F488CF86E0F801A7E2B3E001900D9286
:104B30008A95E1F780912703909128030E94670EE0
:104B40000E94F023F0CE81E08E25FBCEA7E1B0E0FD
:104B5000ECEAF5E20C94EE2A4B8B5C8B6D8B7E8B32
:104B60008F8B6111109280031A8A198A85E0FE01E9
:104B70007396DE011D9601900D928A95E1F786E00D
:104B8000FE013D96DE01179601900D928A95E1F7A0
:104B9000CE0107960E944524882359F016E08091A3
:104BA0005E0390912D03891343C06796E3E00C9454
:104BB0000A2B86E0FE013796DE01119601900D92D8
:104BC0008A95E1F78A859B85892B41F38F819885AA
:104BD00089238F3F19F320912D0330E0C9010196FD
:104BE0008770992740915E034817190671F40E9457
:104BF0000F1A10922D0310925E0386E0E7E2F3E0B5
:104C0000DF011D928A95E9F7C9CF96E0929FD00106
:104C1000939FB00D1124A25DBC4FFE01319601900F
:104C20000D929A95E1F780932D030E94210EB6CF45
:104C3000819FC0011124825D9C4F0E9445248823DE
:104C400009F4B3CF80915E0390E0019687709927B5
:104C500080935E03A4CF1F920F920FB60F92112480
:104C60002F933F934F935F936F937F938F939F9374
:104C7000AF93BF93CF93DF93EF93FF93D091E9006E
:104C8000DF708091EC00C82FC17080FDC0E81092E9
:104C9000E9008091F000877F8093F00078940E9473
:104CA000251A1092E9008091F00088608093F0004E
:104CB000CD2BCF70C093E900FF91EF91DF91CF91A1
:104CC000BF91AF919F918F917F916F915F914F9124
:104CD0003F912F910F900FBE0F901F9018951F922C
:104CE0000F920FB60F9211242F933F934F935F9320
:104CF0006F937F938F939F93AF93BF93EF93FF93A4
:104D00008091E10082FF09C08091E20082FF05C02E
:104D10008091E1008B7F8093E1008091DA0080FF39
:104D200024C08091D80080FF20C08091DA008E7F5F
:104D30008093DA008091D90080FF9DC080E189BD19
:104D400082E189BD09B400FEFDCF81E08093E006D9
:104D50008091BB06811109C00E9479020E94440320
:104D60008091E20084608093E2008091E10080FF06
:104D700017C08091E20080FF13C08091E2008E7F17
:104D80008093E2008091E20080618093E200809154
:104D9000D80080628093D80019BC85E08093E0063B
:104DA0008091E10084FF2BC08091E20084FF27C046
:104DB00080E189BD82E189BD89B5982F917080FF1E
:104DC000FBCF8091D8008F7D8093D8008091E10047
:104DD0008F7E8093E1008091E2008F7E8093E200DD
:104DE0008091E20081608093E2008091E106882357
:104DF00009F447C084E08093E0068091E00680914A
:104E0000E10083FF27C08091E20083FF23C08091EF
:104E1000E100877F8093E10082E08093E0061092BA
:104E2000E1068091E1008E7F8093E1008091E200B5
:104E30008E7F8093E2008091E20080618093E200A7
:104E400042E060E080E00E9412038091F000886000
:104E50008093F000FF91EF91BF91AF919F918F915F
:104E60007F916F915F914F913F912F910F900FBE66
:104E70000F901F90189519BC1092E0061092BB0677
:104E800074CF8091E30087FD93E09093E006B5CF67
:104E900078941F921FB61F9211248F939F93AF9304
:104EA000BF938091B2069091B306A091B406B091E1
:104EB000B5060196A11DB11D8093B2069093B3066D
:104EC000A093B406B093B506BF91AF919F918F9117
:104ED0001F901FBE1F9018951F921FB61F9211247E
:104EE0008F939F93AF93BF938091B106811113C0AD
:104EF0008091B2069091B306A091B406B091B50628
:104F00004196A11DB11D8093B2069093B306A09364
:104F1000B406B093B506BF91AF919F918F911F904A
:104F20001FBE1F901895CDB7DEB72A970FB6F8941D
:104F3000DEBF0FBECDBF85B7806885BF85B78068EF
:104F400085BF84B7877F84BF0FB6F894A8958091FA
:104F50006000886180936000109260000FBE80E85E
:104F600091E00FB6F89480936100909361000FBEBA
:104F70008FE19CE09093C9028093C8020E9479025D
:104F80000E9444038091E20084608093E200789460
:104F90008091E0068823A1F01091E9001F709091A4
:104FA000EC00892F817090FD80E8182B1092E900A9
:104FB0008091E80083FD0E94251A1F701093E9007C
:104FC00082E084BD93E095BD9DE797BD80936E0020
:104FD0000DE411E0D8018D918D018F3F11F00E94F9
:104FE000210CB1E003351B07A9F703E511E0F80137
:104FF00081918F018F3F11F00E94210CF1E0033667
:105000001F07A9F78CE0E6E9F3E0DF01282F1D92E6
:105010002A95E9F7EAE8F3E0DF011D928A95E9F7BE
:1050200090E080E00E94A02B883E9E4F11F00E94ED
:10503000F61D82E090E00E94982B8093A2030E94CC
:1050400050189093B7068093B6060E945E18EFE161
:10505000FEE43197F1F700C000000E945E188091D5
:10506000960380FF08C06FEF7FEF90E080E00E9422
:10507000D42B0E94020483E090E00E94982B682FBA
:1050800070E090E080E00E94041A1092EE068FEF2C
:105090009FEF909308078093070790930A078093E8
:1050A000090790930C0780930B0790930E0780934A
:1050B0000D079093100780930F079093120780932A
:1050C000110790931407809313079093160780930A
:1050D000150710927D059093970580939605909300
:1050E00099058093980590939B0580939A059093DA
:1050F0009D0580939C0590939F0580939E059093BA
:10510000A1058093A0059093A3058093A205909399
:10511000A5058093A40590E080E00E94A02B883E26
:105120009E4F21F00E94F61D0E94F70F46E050E0CE
:105130006CE170E08BE197E00E94882B10921A07D7
:1051400080911B078C7F11F40E94F70F84E091E09F
:105150009093AE068093AD0638E1632E712C40E447
:10516000342E4424439428E0A22EB12C8091E006F2
:1051700093E0F92E00E112E1853009F458C10E9454
:105180005E18882359F08FB7F8944091B206509179
:10519000B3066091B4067091B5068FBFE6E9F3E0FF
:1051A000A3EAB3E010E000E0E02EC190D1902D9191
:1051B0003D912C153D0509F49FC12C253D25F12C71
:1051C00088248394912CA90148215921452B09F465
:1051D0008DC1F982EA82C820D92081E0C114D104AE
:1051E00009F480E08B830E9422048160782F9D83E4
:1051F0008C8349815A816B818D810E94A625F8019B
:10520000EE0FFF1FED55FC4F808191818826992676
:1052100091828082CD2871F0F801A4E0EE0FFF1F8B
:10522000AA95E1F7E559FE4FEF0DF11D80818F3F03
:1052300009F009C1212CC22CD12C80917D058C0D47
:105240009D2D911D09975CF145018C189D08B601B3
:1052500062587A4FA4018EE795E00E947F2BB60139
:105260006A577A4FA40186E895E00E947F2BA4013B
:10527000440F551FB601660F771F6A567A4F86E9AD
:1052800095E00E947F2BB60162577A4FA4018EE809
:1052900095E00E947F2B88E0821980937D058091A4
:1052A0007D0590E0A52DB0E09D01220F331F255311
:1052B0003E4FAA0FBB1FBD0164537E4F41E0480F14
:1052C000921508F4C4C080937D0580911B078C7FE4
:1052D0008C3709F0FFC08FEF8E0D21E02E0D9FEF70
:1052E0009F0D61E06F0D34E0000F111F3A95E1F75B
:1052F0009F1558F4F801E35EFA4FE90FF11D308174
:1053000040E1340F08F43FEF3083AF2DB0E0035E8F
:105310001A4FF801EA0FFB1F308170E2370F08F4D3
:105320003FEF3083603109F418C1F801E60FF11D39
:10533000308170E1370F08F43FEF3083263009F0F9
:105340009BC09F1570F420E1829FF0011124E35E61
:10535000FA4FE90FF11D20813DE0230F08F42FEFF4
:10536000208330E1839FF0011124E35EFA4FAE0FFA
:10537000BF1F2C9130E1230F08F42FEF2C936031E5
:1053800009F4A8C0E60FF11D20813DE0230F08F4C9
:105390002FEF20839FC08091E006843009F436C04F
:1053A0000E9439168091AE0581110DC00E94121025
:1053B0001092130180911B078370809312010E9449
:1053C000760FF09218014092AE051092B1060FB61A
:1053D000F894A895609260000FBE3092600083B789
:1053E000817F846083BF83B7816083BF7894889511
:1053F00083B78E7F83BF0FB6F894A8958091600025
:10540000886180936000109260000FBE8091DF067B
:10541000882369F00E945E18E6E9F3E0819191919A
:10542000892B09F080C023E0E23AF207B9F78091B6
:10543000E006853009F4AFCF0E940F1A0E94B9042C
:105440001092AE059CCE582E22242394F4CE90E0E8
:10545000FC01E358FA4FD9015C915183DB015C9167
:105460005187518A880F991FFC01E358FA4F128E19
:10547000118E91E0842F22CF9F1570F430E1239F8D
:10548000F0011124E35EFA4FE90FF11D30817DE058
:10549000370F08F43FEF308340E1249F900111243F
:1054A000235E3A4FF901EA0FFB1F708110E1710F83
:1054B00008F47FEF7083603109F44BC0F901E60F07
:1054C000F11D20813DE0230F08F42FEF20838E157E
:1054D00008F437CF0E9439160E94B9049091AF03A7
:1054E000891709F443CE8093AF033DCEF394880C23
:1054F000991C40E1F41267CE0F5F1F4F0630110573
:1055000009F052CE8FEF8E838F8318860E9422047B
:105510008160782F9A8789874E815F8168858A8527
:105520000E94A625D7CF09BD19BD09B400FEFDCF45
:105530008091D8008F7D8093D8008091E0008260B8
:105540008093E0008091E00081FDFCCF0E940F1A63
:105550006ECF8E1508F0BECFF6CE263009F08ECF76
:10556000F2CEAA1BBB1B51E107C0AA1FBB1FA61787
:10557000B70710F0A61BB70B881F991F5A95A9F7FC
:1055800080959095BC01CD01089597FB072E16F4E8
:10559000009407D077FD09D00E94B12A07FC05D0FE
:1055A0003EF4909581959F4F0895709561957F4F3A
:1055B0000895EE0FFF1F0590F491E02D09942F92AE
:1055C0003F924F925F926F927F928F929F92AF9293
:1055D000BF92CF92DF92EF92FF920F931F93CF93E0
:1055E000DF93CDB7DEB7CA1BDB0B0FB6F894DEBF77
:1055F0000FBECDBF09942A88398848885F846E849D
:105600007D848C849B84AA84B984C884DF80EE80E6
:10561000FD800C811B81AA81B981CE0FD11D0FB6EF
:10562000F894DEBF0FBECDBFED0108958F929F921B
:10563000AF92BF92CF92DF92EF92FF92CF93DF9320
:10564000EC01688179818A819B81611571058105F1
:10565000910521F464E279ED8BE597E02DE133EFDC
:1056600041E050E00E94DA2B49015A019B01AC0154
:10567000A7EAB1E40E94F92B6B017C01ACEEB4EF18
:10568000A50194010E94072CDC01CB018C0D9D1D0E
:10569000AE1DBF1DB7FF03C00197A109B0488883A5
:1056A0009983AA83BB839F77DF91CF91FF90EF907F
:1056B000DF90CF90BF90AF909F908F9008950E9401
:1056C000162B089580E091E00E94162B0895B0E01B
:1056D000A0E08093000190930101A0930201B09398
:1056E00003010895FB01DC0104C08D910190801934
:1056F00021F441505040C8F7881B990B0895FB01D5
:10570000DC0102C001900D9241505040D8F708953D
:10571000DC01CB01FC01F999FECF06C0F2BDE1BD71
:10572000F89A319600B40D9241505040B8F7089560
:10573000F999FECF92BD81BDF89A992780B5089559
:10574000A8E1B0E042E050E00C948A2BDC01A40F09
:10575000B51F4150504048F0CB01840F951F2E914A
:105760000E94B72B41505040D0F70895262FF99949
:10577000FECF92BD81BDF89A019700B4021639F0B0
:105780001FBA20BD0FB6F894FA9AF99A0FBE089581
:105790000396272F0E94B72B0E94B62B252F0E941D
:1057A000B72B242F0C94B72B0196272F0E94B72BD1
:1057B0000C94B62B052E97FB1EF400940E94F12B3F
:1057C00057FD07D00E940C2C07FC03D04EF40C941C
:1057D000F12B50954095309521953F4F4F4F5F4F9E
:1057E000089590958095709561957F4F8F4F9F4F4D
:1057F00008950E942E2CA59F900DB49F900DA49FFC
:10580000800D911D11240895B7FF0C94F92B0E946F
:10581000F92B821B930B0895A1E21A2EAA1BBB1B26
:10582000FD010DC0AA1FBB1FEE1FFF1FA217B3076C
:10583000E407F50720F0A21BB30BE40BF50B661F82
:10584000771F881F991F1A9469F760957095809546
:1058500090959B01AC01BD01CF010895A29FB001BD
:10586000B39FC001A39F700D811D1124911DB29F94
:10587000700D811D1124911D0895F894FFCF4310E0
:1058800066109410D0100C114C11901195119811B4
:105890009E11A111A611A911AC11AF11B211B51130
:1058A000B811BB11BE11C111C611C911CC110E1214
:1058B0005012941297129A120413CF1391142F15A9
:1058C000E815ED15F015FD1501160C160F161A1634
:1058D0001D1628162B163616041B2C1BC41C2C1B3D
:1058E000C41C5F1B801BC41C7D1C8A1CE820E82094
:1058F00021212121C3214F214F214F21DD21B3221D
:04590000C222C222DB
:1059040001000000FF03360FFE03310F2C0FFD03CF
:105914003905FFFF0100FF00039BFFB4818283E28E
:1059240000E900EA00B500B600B700CD008301CC61
:10593400008A0192019401210223022402250226F5
:105944000227022A02B300B4006F007000949697F5
:1059540034353667C2F7F6F5F4F1F0C63037909176
:10596400929395003131295A1B750A44454647489C
:10597400494A4B4C4D4E4F505152533536373839B6
:105984003A3B3C3D3E3F4041424300262728292ADA
:105994002B2C2D2E2F30313233340018191A1B1CA6
:1059A4001D1E1F20212223242500000A0B0C0D0E8E
:1059B4000F1011121314151617000000010203042E
:1059C4000506070809000000000000004010401E02
:1059D400402D406840A440B240C140D040E0401057
:1059E400331E332D333B334A33593368337733858E
:1059F400339533A433C133D033E03300261E262D30
:105A0400263B264A2659266826772685269526A4E7
:105A140026B226C126E026001A1E1A2D1A3B1A4A5F
:105A24001A591A681A771A851A951AA41AB21AC139
:105A34001AD01AE01A000D100D1E0D2D0D3B0D4A43
:105A44000D590D680D770D850D950DA40DB20DD072
:105A54000DE00D000010001E002D003B004A00590F
:105A6400006800770085009500A400B200C100D052
:105A740000E000040404040404040404040404040E
:105A840004040404040404040404040404040404D2
:105A940004040404040404040404040404040404C2
:105AA40004040404040404040404040404040404B2
:105AB40004040404040404040404040404040404A2
:085AC4000404040404040400BE
:00000001FF
